{
  "_format": "hh-sol-artifact-1",
  "contractName": "MyEpicNFT",
  "sourceName": "contracts/MyEpicNFT.sol",
  "abi": [
    {
      "inputs": [],
      "stateMutability": "nonpayable",
      "type": "constructor"
    },
    {
      "anonymous": false,
      "inputs": [
        {
          "indexed": true,
          "internalType": "address",
          "name": "owner",
          "type": "address"
        },
        {
          "indexed": true,
          "internalType": "address",
          "name": "approved",
          "type": "address"
        },
        {
          "indexed": true,
          "internalType": "uint256",
          "name": "tokenId",
          "type": "uint256"
        }
      ],
      "name": "Approval",
      "type": "event"
    },
    {
      "anonymous": false,
      "inputs": [
        {
          "indexed": true,
          "internalType": "address",
          "name": "owner",
          "type": "address"
        },
        {
          "indexed": true,
          "internalType": "address",
          "name": "operator",
          "type": "address"
        },
        {
          "indexed": false,
          "internalType": "bool",
          "name": "approved",
          "type": "bool"
        }
      ],
      "name": "ApprovalForAll",
      "type": "event"
    },
    {
      "anonymous": false,
      "inputs": [
        {
          "indexed": false,
          "internalType": "address",
          "name": "sender",
          "type": "address"
        },
        {
          "indexed": false,
          "internalType": "uint256",
          "name": "tokenId",
          "type": "uint256"
        }
      ],
      "name": "NewEpicNFTMinted",
      "type": "event"
    },
    {
      "anonymous": false,
      "inputs": [
        {
          "indexed": true,
          "internalType": "address",
          "name": "from",
          "type": "address"
        },
        {
          "indexed": true,
          "internalType": "address",
          "name": "to",
          "type": "address"
        },
        {
          "indexed": true,
          "internalType": "uint256",
          "name": "tokenId",
          "type": "uint256"
        }
      ],
      "name": "Transfer",
      "type": "event"
    },
    {
      "inputs": [
        {
          "internalType": "address",
          "name": "to",
          "type": "address"
        },
        {
          "internalType": "uint256",
          "name": "tokenId",
          "type": "uint256"
        }
      ],
      "name": "approve",
      "outputs": [],
      "stateMutability": "nonpayable",
      "type": "function"
    },
    {
      "inputs": [
        {
          "internalType": "address",
          "name": "owner",
          "type": "address"
        }
      ],
      "name": "balanceOf",
      "outputs": [
        {
          "internalType": "uint256",
          "name": "",
          "type": "uint256"
        }
      ],
      "stateMutability": "view",
      "type": "function"
    },
    {
      "inputs": [
        {
          "internalType": "uint256",
          "name": "tokenId",
          "type": "uint256"
        }
      ],
      "name": "getApproved",
      "outputs": [
        {
          "internalType": "address",
          "name": "",
          "type": "address"
        }
      ],
      "stateMutability": "view",
      "type": "function"
    },
    {
      "inputs": [
        {
          "internalType": "address",
          "name": "owner",
          "type": "address"
        },
        {
          "internalType": "address",
          "name": "operator",
          "type": "address"
        }
      ],
      "name": "isApprovedForAll",
      "outputs": [
        {
          "internalType": "bool",
          "name": "",
          "type": "bool"
        }
      ],
      "stateMutability": "view",
      "type": "function"
    },
    {
      "inputs": [],
      "name": "makeAnEpicNFT",
      "outputs": [],
      "stateMutability": "nonpayable",
      "type": "function"
    },
    {
      "inputs": [],
      "name": "name",
      "outputs": [
        {
          "internalType": "string",
          "name": "",
          "type": "string"
        }
      ],
      "stateMutability": "view",
      "type": "function"
    },
    {
      "inputs": [
        {
          "internalType": "uint256",
          "name": "tokenId",
          "type": "uint256"
        }
      ],
      "name": "ownerOf",
      "outputs": [
        {
          "internalType": "address",
          "name": "",
          "type": "address"
        }
      ],
      "stateMutability": "view",
      "type": "function"
    },
    {
      "inputs": [
        {
          "internalType": "uint256",
          "name": "tokenId",
          "type": "uint256"
        }
      ],
      "name": "pickRandomFirstWord",
      "outputs": [
        {
          "internalType": "string",
          "name": "",
          "type": "string"
        }
      ],
      "stateMutability": "view",
      "type": "function"
    },
    {
      "inputs": [
        {
          "internalType": "uint256",
          "name": "tokenId",
          "type": "uint256"
        }
      ],
      "name": "pickRandomSecondWord",
      "outputs": [
        {
          "internalType": "string",
          "name": "",
          "type": "string"
        }
      ],
      "stateMutability": "view",
      "type": "function"
    },
    {
      "inputs": [
        {
          "internalType": "uint256",
          "name": "tokenId",
          "type": "uint256"
        }
      ],
      "name": "pickRandomThirdWord",
      "outputs": [
        {
          "internalType": "string",
          "name": "",
          "type": "string"
        }
      ],
      "stateMutability": "view",
      "type": "function"
    },
    {
      "inputs": [
        {
          "internalType": "address",
          "name": "from",
          "type": "address"
        },
        {
          "internalType": "address",
          "name": "to",
          "type": "address"
        },
        {
          "internalType": "uint256",
          "name": "tokenId",
          "type": "uint256"
        }
      ],
      "name": "safeTransferFrom",
      "outputs": [],
      "stateMutability": "nonpayable",
      "type": "function"
    },
    {
      "inputs": [
        {
          "internalType": "address",
          "name": "from",
          "type": "address"
        },
        {
          "internalType": "address",
          "name": "to",
          "type": "address"
        },
        {
          "internalType": "uint256",
          "name": "tokenId",
          "type": "uint256"
        },
        {
          "internalType": "bytes",
          "name": "_data",
          "type": "bytes"
        }
      ],
      "name": "safeTransferFrom",
      "outputs": [],
      "stateMutability": "nonpayable",
      "type": "function"
    },
    {
      "inputs": [
        {
          "internalType": "address",
          "name": "operator",
          "type": "address"
        },
        {
          "internalType": "bool",
          "name": "approved",
          "type": "bool"
        }
      ],
      "name": "setApprovalForAll",
      "outputs": [],
      "stateMutability": "nonpayable",
      "type": "function"
    },
    {
      "inputs": [
        {
          "internalType": "bytes4",
          "name": "interfaceId",
          "type": "bytes4"
        }
      ],
      "name": "supportsInterface",
      "outputs": [
        {
          "internalType": "bool",
          "name": "",
          "type": "bool"
        }
      ],
      "stateMutability": "view",
      "type": "function"
    },
    {
      "inputs": [],
      "name": "symbol",
      "outputs": [
        {
          "internalType": "string",
          "name": "",
          "type": "string"
        }
      ],
      "stateMutability": "view",
      "type": "function"
    },
    {
      "inputs": [
        {
          "internalType": "uint256",
          "name": "tokenId",
          "type": "uint256"
        }
      ],
      "name": "tokenURI",
      "outputs": [
        {
          "internalType": "string",
          "name": "",
          "type": "string"
        }
      ],
      "stateMutability": "view",
      "type": "function"
    },
    {
      "inputs": [
        {
          "internalType": "address",
          "name": "from",
          "type": "address"
        },
        {
          "internalType": "address",
          "name": "to",
          "type": "address"
        },
        {
          "internalType": "uint256",
          "name": "tokenId",
          "type": "uint256"
        }
      ],
      "name": "transferFrom",
      "outputs": [],
      "stateMutability": "nonpayable",
      "type": "function"
    }
  ],
  "bytecode": "0x6080604052604051806101800160405280610147815260200162004200610147913960089080519060200190620000389291906200067e565b506040518060c001604052806040518060400160405280600581526020017f416b61726100000000000000000000000000000000000000000000000000000081525081526020016040518060400160405280600481526020017f417261730000000000000000000000000000000000000000000000000000000081525081526020016040518060400160405280600681526020017f42616c69616e000000000000000000000000000000000000000000000000000081525081526020016040518060400160405280600481526020017f457372610000000000000000000000000000000000000000000000000000000081525081526020016040518060400160405280600381526020017f456765000000000000000000000000000000000000000000000000000000000081525081526020016040518060400160405280600581526020017f45726b696e0000000000000000000000000000000000000000000000000000008152508152506009906006620001b69291906200070f565b506040518060c001604052806040518060400160405280600981526020017f46656c696369616e6f000000000000000000000000000000000000000000000081525081526020016040518060400160405280600781526020017f4a75616e6974610000000000000000000000000000000000000000000000000081525081526020016040518060400160405280600481526020017f417964610000000000000000000000000000000000000000000000000000000081525081526020016040518060400160405280600781526020017f5269636172646f0000000000000000000000000000000000000000000000000081525081526020016040518060400160405280600681526020017f526f73697461000000000000000000000000000000000000000000000000000081525081526020016040518060400160405280600881526020017f5265796e616c646f000000000000000000000000000000000000000000000000815250815250600a906006620003349291906200070f565b506040518060c001604052806040518060400160405280600681526020017f4779656f6e67000000000000000000000000000000000000000000000000000081525081526020016040518060400160405280600281526020017f4d6900000000000000000000000000000000000000000000000000000000000081525081526020016040518060400160405280600581526020017f4d61656e6700000000000000000000000000000000000000000000000000000081525081526020016040518060400160405280600281526020017f556e00000000000000000000000000000000000000000000000000000000000081525081526020016040518060400160405280600381526020017f456f6d000000000000000000000000000000000000000000000000000000000081525081526020016040518060400160405280600381526020017f43686f0000000000000000000000000000000000000000000000000000000000815250815250600b906006620004b29291906200070f565b50348015620004c057600080fd5b506040518060400160405280600981526020017f5371756172654e465400000000000000000000000000000000000000000000008152506040518060400160405280600681526020017f53515541524500000000000000000000000000000000000000000000000000008152508160009080519060200190620005459291906200067e565b5080600190805190602001906200055e9291906200067e565b505050620005ac6040518060400160405280601e81526020017f54686973206973206d79204e465420636f6e74726163742e20576f6168210000815250620005b260201b620010be1760201c565b62000930565b6200065281604051602401620005c9919062000844565b6040516020818303038152906040527f41304fac000000000000000000000000000000000000000000000000000000007bffffffffffffffffffffffffffffffffffffffffffffffffffffffff19166020820180517bffffffffffffffffffffffffffffffffffffffffffffffffffffffff83818316178352505050506200065560201b60201c565b50565b60008151905060006a636f6e736f6c652e6c6f679050602083016000808483855afa5050505050565b8280546200068c90620008ba565b90600052602060002090601f016020900481019282620006b05760008555620006fc565b82601f10620006cb57805160ff1916838001178555620006fc565b82800160010185558215620006fc579182015b82811115620006fb578251825591602001919060010190620006de565b5b5090506200070b919062000776565b5090565b82805482825590600052602060002090810192821562000763579160200282015b8281111562000762578251829080519060200190620007519291906200067e565b509160200191906001019062000730565b5b50905062000772919062000795565b5090565b5b808211156200079157600081600090555060010162000777565b5090565b5b80821115620007b95760008181620007af9190620007bd565b5060010162000796565b5090565b508054620007cb90620008ba565b6000825580601f10620007df575062000800565b601f016020900490600052602060002090810190620007ff919062000776565b5b50565b6000620008108262000868565b6200081c818562000873565b93506200082e81856020860162000884565b62000839816200091f565b840191505092915050565b6000602082019050818103600083015262000860818462000803565b905092915050565b600081519050919050565b600082825260208201905092915050565b60005b83811015620008a457808201518184015260208101905062000887565b83811115620008b4576000848401525b50505050565b60006002820490506001821680620008d357607f821691505b60208210811415620008ea57620008e9620008f0565b5b50919050565b7f4e487b7100000000000000000000000000000000000000000000000000000000600052602260045260246000fd5b6000601f19601f8301169050919050565b6138c080620009406000396000f3fe608060405234801561001057600080fd5b506004361061010b5760003560e01c806370a08231116100a2578063b88d4fde11610071578063b88d4fde146102dc578063c575757a146102f8578063c87b56dd14610328578063de9d132f14610358578063e985e9c5146103625761010b565b806370a082311461024257806395d89b4114610272578063a22cb46514610290578063b187301f146102ac5761010b565b806323b872dd116100de57806323b872dd146101aa5780632de38d68146101c657806342842e0e146101f65780636352211e146102125761010b565b806301ffc9a71461011057806306fdde0314610140578063081812fc1461015e578063095ea7b31461018e575b600080fd5b61012a600480360381019061012591906124be565b610392565b6040516101379190613136565b60405180910390f35b610148610474565b6040516101559190613151565b60405180910390f35b61017860048036038101906101739190612510565b610506565b60405161018591906130a6565b60405180910390f35b6101a860048036038101906101a39190612482565b61058b565b005b6101c460048036038101906101bf919061237c565b6106a3565b005b6101e060048036038101906101db9190612510565b610703565b6040516101ed9190613151565b60405180910390f35b610210600480360381019061020b919061237c565b610821565b005b61022c60048036038101906102279190612510565b610841565b60405161023991906130a6565b60405180910390f35b61025c60048036038101906102579190612317565b6108f3565b60405161026991906133b1565b60405180910390f35b61027a6109ab565b6040516102879190613151565b60405180910390f35b6102aa60048036038101906102a59190612446565b610a3d565b005b6102c660048036038101906102c19190612510565b610a53565b6040516102d39190613151565b60405180910390f35b6102f660048036038101906102f191906123cb565b610b71565b005b610312600480360381019061030d9190612510565b610bd3565b60405161031f9190613151565b60405180910390f35b610342600480360381019061033d9190612510565b610cf1565b60405161034f9190613151565b60405180910390f35b610360610e43565b005b61037c60048036038101906103779190612340565b61102a565b6040516103899190613136565b60405180910390f35b60007f80ac58cd000000000000000000000000000000000000000000000000000000007bffffffffffffffffffffffffffffffffffffffffffffffffffffffff1916827bffffffffffffffffffffffffffffffffffffffffffffffffffffffff1916148061045d57507f5b5e139f000000000000000000000000000000000000000000000000000000007bffffffffffffffffffffffffffffffffffffffffffffffffffffffff1916827bffffffffffffffffffffffffffffffffffffffffffffffffffffffff1916145b8061046d575061046c82611157565b5b9050919050565b60606000805461048390613650565b80601f01602080910402602001604051908101604052809291908181526020018280546104af90613650565b80156104fc5780601f106104d1576101008083540402835291602001916104fc565b820191906000526020600020905b8154815290600101906020018083116104df57829003601f168201915b5050505050905090565b6000610511826111c1565b610550576040517f08c379a000000000000000000000000000000000000000000000000000000000815260040161054790613311565b60405180910390fd5b6004600083815260200190815260200160002060009054906101000a900473ffffffffffffffffffffffffffffffffffffffff169050919050565b600061059682610841565b90508073ffffffffffffffffffffffffffffffffffffffff168373ffffffffffffffffffffffffffffffffffffffff161415610607576040517f08c379a00000000000000000000000000000000000000000000000000000000081526004016105fe90613371565b60405180910390fd5b8073ffffffffffffffffffffffffffffffffffffffff1661062661122d565b73ffffffffffffffffffffffffffffffffffffffff16148061065557506106548161064f61122d565b61102a565b5b610694576040517f08c379a000000000000000000000000000000000000000000000000000000000815260040161068b90613251565b60405180910390fd5b61069e8383611235565b505050565b6106b46106ae61122d565b826112ee565b6106f3576040517f08c379a00000000000000000000000000000000000000000000000000000000081526004016106ea90613391565b60405180910390fd5b6106fe8383836113cc565b505050565b6060600061073761071384611628565b6040516020016107239190613062565b6040516020818303038152906040526117d5565b90506009805490508161074a91906136cb565b905060098181548110610786577f4e487b7100000000000000000000000000000000000000000000000000000000600052603260045260246000fd5b90600052602060002001805461079b90613650565b80601f01602080910402602001604051908101604052809291908181526020018280546107c790613650565b80156108145780601f106107e957610100808354040283529160200191610814565b820191906000526020600020905b8154815290600101906020018083116107f757829003601f168201915b5050505050915050919050565b61083c83838360405180602001604052806000815250610b71565b505050565b6000806002600084815260200190815260200160002060009054906101000a900473ffffffffffffffffffffffffffffffffffffffff169050600073ffffffffffffffffffffffffffffffffffffffff168173ffffffffffffffffffffffffffffffffffffffff1614156108ea576040517f08c379a00000000000000000000000000000000000000000000000000000000081526004016108e190613291565b60405180910390fd5b80915050919050565b60008073ffffffffffffffffffffffffffffffffffffffff168273ffffffffffffffffffffffffffffffffffffffff161415610964576040517f08c379a000000000000000000000000000000000000000000000000000000000815260040161095b90613271565b60405180910390fd5b600360008373ffffffffffffffffffffffffffffffffffffffff1673ffffffffffffffffffffffffffffffffffffffff168152602001908152602001600020549050919050565b6060600180546109ba90613650565b80601f01602080910402602001604051908101604052809291908181526020018280546109e690613650565b8015610a335780601f10610a0857610100808354040283529160200191610a33565b820191906000526020600020905b815481529060010190602001808311610a1657829003601f168201915b5050505050905090565b610a4f610a4861122d565b8383611808565b5050565b60606000610a87610a6384611628565b604051602001610a739190612ffb565b6040516020818303038152906040526117d5565b9050600a8054905081610a9a91906136cb565b9050600a8181548110610ad6577f4e487b7100000000000000000000000000000000000000000000000000000000600052603260045260246000fd5b906000526020600020018054610aeb90613650565b80601f0160208091040260200160405190810160405280929190818152602001828054610b1790613650565b8015610b645780601f10610b3957610100808354040283529160200191610b64565b820191906000526020600020905b815481529060010190602001808311610b4757829003601f168201915b5050505050915050919050565b610b82610b7c61122d565b836112ee565b610bc1576040517f08c379a0000000000000000000000000000000000000000000000000000000008152600401610bb890613391565b60405180910390fd5b610bcd84848484611975565b50505050565b60606000610c07610be384611628565b604051602001610bf39190612fd9565b6040516020818303038152906040526117d5565b9050600b8054905081610c1a91906136cb565b9050600b8181548110610c56577f4e487b7100000000000000000000000000000000000000000000000000000000600052603260045260246000fd5b906000526020600020018054610c6b90613650565b80601f0160208091040260200160405190810160405280929190818152602001828054610c9790613650565b8015610ce45780601f10610cb957610100808354040283529160200191610ce4565b820191906000526020600020905b815481529060010190602001808311610cc757829003601f168201915b5050505050915050919050565b6060610cfc826111c1565b610d3b576040517f08c379a0000000000000000000000000000000000000000000000000000000008152600401610d32906132f1565b60405180910390fd5b6000600660008481526020019081526020016000208054610d5b90613650565b80601f0160208091040260200160405190810160405280929190818152602001828054610d8790613650565b8015610dd45780601f10610da957610100808354040283529160200191610dd4565b820191906000526020600020905b815481529060010190602001808311610db757829003601f168201915b505050505090506000610de56119d1565b9050600081511415610dfb578192505050610e3e565b600082511115610e30578082604051602001610e18929190612f3f565b60405160208183030381529060405292505050610e3e565b610e39846119e8565b925050505b919050565b6000610e4f6007611a8f565b90506000610e5c82610703565b90506000610e6983610a53565b90506000610e7684610bd3565b90506000838383604051602001610e8f93929190612f63565b60405160208183030381529060405290506000600882604051602001610eb6929190612faa565b60405160208183030381529060405290506000610efb83610ed684611a9d565b604051602001610ee792919061301d565b604051602081830303815290604052611a9d565b9050600081604051602001610f109190613084565b6040516020818303038152906040529050610f5f6040518060400160405280601581526020017f0a2d2d2d2d2d2d2d2d2d2d2d2d2d2d2d2d2d2d2d2d00000000000000000000008152506110be565b610f68816110be565b610fa66040518060400160405280601581526020017f2d2d2d2d2d2d2d2d2d2d2d2d2d2d2d2d2d2d2d2d0a00000000000000000000008152506110be565b610fb03389611c5b565b610fba8882611c79565b610fc46007611ced565b610fe7604051806060016040528060258152602001613826602591398933611d03565b7febb98688741ffa4c7589bf325de30cf7becb63de567842e1ccdb6cb949fdc82c338960405161101892919061310d565b60405180910390a15050505050505050565b6000600560008473ffffffffffffffffffffffffffffffffffffffff1673ffffffffffffffffffffffffffffffffffffffff16815260200190815260200160002060008373ffffffffffffffffffffffffffffffffffffffff1673ffffffffffffffffffffffffffffffffffffffff16815260200190815260200160002060009054906101000a900460ff16905092915050565b611154816040516024016110d29190613151565b6040516020818303038152906040527f41304fac000000000000000000000000000000000000000000000000000000007bffffffffffffffffffffffffffffffffffffffffffffffffffffffff19166020820180517bffffffffffffffffffffffffffffffffffffffffffffffffffffffff8381831617835250505050611da2565b50565b60007f01ffc9a7000000000000000000000000000000000000000000000000000000007bffffffffffffffffffffffffffffffffffffffffffffffffffffffff1916827bffffffffffffffffffffffffffffffffffffffffffffffffffffffff1916149050919050565b60008073ffffffffffffffffffffffffffffffffffffffff166002600084815260200190815260200160002060009054906101000a900473ffffffffffffffffffffffffffffffffffffffff1673ffffffffffffffffffffffffffffffffffffffff1614159050919050565b600033905090565b816004600083815260200190815260200160002060006101000a81548173ffffffffffffffffffffffffffffffffffffffff021916908373ffffffffffffffffffffffffffffffffffffffff160217905550808273ffffffffffffffffffffffffffffffffffffffff166112a883610841565b73ffffffffffffffffffffffffffffffffffffffff167f8c5be1e5ebec7d5bd14f71427d1e84f3dd0314c0f7b2291e5b200ac8c7c3b92560405160405180910390a45050565b60006112f9826111c1565b611338576040517f08c379a000000000000000000000000000000000000000000000000000000000815260040161132f90613231565b60405180910390fd5b600061134383610841565b90508073ffffffffffffffffffffffffffffffffffffffff168473ffffffffffffffffffffffffffffffffffffffff1614806113b257508373ffffffffffffffffffffffffffffffffffffffff1661139a84610506565b73ffffffffffffffffffffffffffffffffffffffff16145b806113c357506113c2818561102a565b5b91505092915050565b8273ffffffffffffffffffffffffffffffffffffffff166113ec82610841565b73ffffffffffffffffffffffffffffffffffffffff1614611442576040517f08c379a000000000000000000000000000000000000000000000000000000000815260040161143990613331565b60405180910390fd5b600073ffffffffffffffffffffffffffffffffffffffff168273ffffffffffffffffffffffffffffffffffffffff1614156114b2576040517f08c379a00000000000000000000000000000000000000000000000000000000081526004016114a9906131f1565b60405180910390fd5b6114bd838383611dcb565b6114c8600082611235565b6001600360008573ffffffffffffffffffffffffffffffffffffffff1673ffffffffffffffffffffffffffffffffffffffff16815260200190815260200160002060008282546115189190613566565b925050819055506001600360008473ffffffffffffffffffffffffffffffffffffffff1673ffffffffffffffffffffffffffffffffffffffff168152602001908152602001600020600082825461156f9190613485565b92505081905550816002600083815260200190815260200160002060006101000a81548173ffffffffffffffffffffffffffffffffffffffff021916908373ffffffffffffffffffffffffffffffffffffffff160217905550808273ffffffffffffffffffffffffffffffffffffffff168473ffffffffffffffffffffffffffffffffffffffff167fddf252ad1be2c89b69c2b068fc378daa952ba7f163c4a11628f55a4df523b3ef60405160405180910390a4505050565b60606000821415611670576040518060400160405280600181526020017f300000000000000000000000000000000000000000000000000000000000000081525090506117d0565b600082905060005b600082146116a257808061168b90613682565b915050600a8261169b91906134db565b9150611678565b60008167ffffffffffffffff8111156116e4577f4e487b7100000000000000000000000000000000000000000000000000000000600052604160045260246000fd5b6040519080825280601f01601f1916602001820160405280156117165781602001600182028036833780820191505090505b5090505b600085146117c95760018261172f9190613566565b9150600a8561173e91906136cb565b603061174a9190613485565b60f81b818381518110611786577f4e487b7100000000000000000000000000000000000000000000000000000000600052603260045260246000fd5b60200101907effffffffffffffffffffffffffffffffffffffffffffffffffffffffffffff1916908160001a905350600a856117c291906134db565b945061171a565b8093505050505b919050565b6000816040516020016117e89190612f28565b6040516020818303038152906040528051906020012060001c9050919050565b8173ffffffffffffffffffffffffffffffffffffffff168373ffffffffffffffffffffffffffffffffffffffff161415611877576040517f08c379a000000000000000000000000000000000000000000000000000000000815260040161186e90613211565b60405180910390fd5b80600560008573ffffffffffffffffffffffffffffffffffffffff1673ffffffffffffffffffffffffffffffffffffffff16815260200190815260200160002060008473ffffffffffffffffffffffffffffffffffffffff1673ffffffffffffffffffffffffffffffffffffffff16815260200190815260200160002060006101000a81548160ff0219169083151502179055508173ffffffffffffffffffffffffffffffffffffffff168373ffffffffffffffffffffffffffffffffffffffff167f17307eab39ab6107e8899845ad3d59bd9653f200f220920489ca2b5937696c31836040516119689190613136565b60405180910390a3505050565b6119808484846113cc565b61198c84848484611dd0565b6119cb576040517f08c379a00000000000000000000000000000000000000000000000000000000081526004016119c2906131b1565b60405180910390fd5b50505050565b606060405180602001604052806000815250905090565b60606119f3826111c1565b611a32576040517f08c379a0000000000000000000000000000000000000000000000000000000008152600401611a2990613351565b60405180910390fd5b6000611a3c6119d1565b90506000815111611a5c5760405180602001604052806000815250611a87565b80611a6684611628565b604051602001611a77929190612f3f565b6040516020818303038152906040525b915050919050565b600081600001549050919050565b60606000825190506000811415611ac65760405180602001604052806000815250915050611c56565b60006003600283611ad79190613485565b611ae191906134db565b6004611aed919061350c565b90506000602082611afe9190613485565b67ffffffffffffffff811115611b3d577f4e487b7100000000000000000000000000000000000000000000000000000000600052604160045260246000fd5b6040519080825280601f01601f191660200182016040528015611b6f5781602001600182028036833780820191505090505b509050600060405180606001604052806040815260200161384b604091399050600181016020830160005b86811015611c135760038101905062ffffff818a015116603f8160121c168401518060081b905060ff603f83600c1c1686015116810190508060081b905060ff603f8360061c1686015116810190508060081b905060ff603f831686015116810190508060e01b90508084526004840193505050611b9a565b506003860660018114611c2d5760028114611c3d57611c48565b613d3d60f01b6002830352611c48565b603d60f81b60018303525b508484525050819450505050505b919050565b611c75828260405180602001604052806000815250611f67565b5050565b611c82826111c1565b611cc1576040517f08c379a0000000000000000000000000000000000000000000000000000000008152600401611cb8906132b1565b60405180910390fd5b80600660008481526020019081526020016000209080519060200190611ce89291906121a3565b505050565b6001816000016000828254019250508190555050565b611d9d838383604051602401611d1b93929190613173565b6040516020818303038152906040527fe3849f79000000000000000000000000000000000000000000000000000000007bffffffffffffffffffffffffffffffffffffffffffffffffffffffff19166020820180517bffffffffffffffffffffffffffffffffffffffffffffffffffffffff8381831617835250505050611da2565b505050565b60008151905060006a636f6e736f6c652e6c6f679050602083016000808483855afa5050505050565b505050565b6000611df18473ffffffffffffffffffffffffffffffffffffffff16611fc2565b15611f5a578373ffffffffffffffffffffffffffffffffffffffff1663150b7a02611e1a61122d565b8786866040518563ffffffff1660e01b8152600401611e3c94939291906130c1565b602060405180830381600087803b158015611e5657600080fd5b505af1925050508015611e8757506040513d601f19601f82011682018060405250810190611e8491906124e7565b60015b611f0a573d8060008114611eb7576040519150601f19603f3d011682016040523d82523d6000602084013e611ebc565b606091505b50600081511415611f02576040517f08c379a0000000000000000000000000000000000000000000000000000000008152600401611ef9906131b1565b60405180910390fd5b805181602001fd5b63150b7a0260e01b7bffffffffffffffffffffffffffffffffffffffffffffffffffffffff1916817bffffffffffffffffffffffffffffffffffffffffffffffffffffffff191614915050611f5f565b600190505b949350505050565b611f718383611fd5565b611f7e6000848484611dd0565b611fbd576040517f08c379a0000000000000000000000000000000000000000000000000000000008152600401611fb4906131b1565b60405180910390fd5b505050565b600080823b905060008111915050919050565b600073ffffffffffffffffffffffffffffffffffffffff168273ffffffffffffffffffffffffffffffffffffffff161415612045576040517f08c379a000000000000000000000000000000000000000000000000000000000815260040161203c906132d1565b60405180910390fd5b61204e816111c1565b1561208e576040517f08c379a0000000000000000000000000000000000000000000000000000000008152600401612085906131d1565b60405180910390fd5b61209a60008383611dcb565b6001600360008473ffffffffffffffffffffffffffffffffffffffff1673ffffffffffffffffffffffffffffffffffffffff16815260200190815260200160002060008282546120ea9190613485565b92505081905550816002600083815260200190815260200160002060006101000a81548173ffffffffffffffffffffffffffffffffffffffff021916908373ffffffffffffffffffffffffffffffffffffffff160217905550808273ffffffffffffffffffffffffffffffffffffffff16600073ffffffffffffffffffffffffffffffffffffffff167fddf252ad1be2c89b69c2b068fc378daa952ba7f163c4a11628f55a4df523b3ef60405160405180910390a45050565b8280546121af90613650565b90600052602060002090601f0160209004810192826121d15760008555612218565b82601f106121ea57805160ff1916838001178555612218565b82800160010185558215612218579182015b828111156122175782518255916020019190600101906121fc565b5b5090506122259190612229565b5090565b5b8082111561224257600081600090555060010161222a565b5090565b6000612259612254846133fd565b6133cc565b90508281526020810184848401111561227157600080fd5b61227c84828561360e565b509392505050565b600081359050612293816137c9565b92915050565b6000813590506122a8816137e0565b92915050565b6000813590506122bd816137f7565b92915050565b6000815190506122d2816137f7565b92915050565b600082601f8301126122e957600080fd5b81356122f9848260208601612246565b91505092915050565b6000813590506123118161380e565b92915050565b60006020828403121561232957600080fd5b600061233784828501612284565b91505092915050565b6000806040838503121561235357600080fd5b600061236185828601612284565b925050602061237285828601612284565b9150509250929050565b60008060006060848603121561239157600080fd5b600061239f86828701612284565b93505060206123b086828701612284565b92505060406123c186828701612302565b9150509250925092565b600080600080608085870312156123e157600080fd5b60006123ef87828801612284565b945050602061240087828801612284565b935050604061241187828801612302565b925050606085013567ffffffffffffffff81111561242e57600080fd5b61243a878288016122d8565b91505092959194509250565b6000806040838503121561245957600080fd5b600061246785828601612284565b925050602061247885828601612299565b9150509250929050565b6000806040838503121561249557600080fd5b60006124a385828601612284565b92505060206124b485828601612302565b9150509250929050565b6000602082840312156124d057600080fd5b60006124de848285016122ae565b91505092915050565b6000602082840312156124f957600080fd5b6000612507848285016122c3565b91505092915050565b60006020828403121561252257600080fd5b600061253084828501612302565b91505092915050565b6125428161359a565b82525050565b612551816135ac565b82525050565b600061256282613442565b61256c8185613458565b935061257c81856020860161361d565b612585816137b8565b840191505092915050565b600061259b8261344d565b6125a58185613469565b93506125b581856020860161361d565b6125be816137b8565b840191505092915050565b60006125d48261344d565b6125de818561347a565b93506125ee81856020860161361d565b80840191505092915050565b6000815461260781613650565b612611818661347a565b9450600182166000811461262c576001811461263d57612670565b60ff19831686528186019350612670565b6126468561342d565b60005b8381101561266857815481890152600182019150602081019050612649565b838801955050505b50505092915050565b6000612686603283613469565b91507f4552433732313a207472616e7366657220746f206e6f6e20455243373231526560008301527f63656976657220696d706c656d656e74657200000000000000000000000000006020830152604082019050919050565b60006126ec601c83613469565b91507f4552433732313a20746f6b656e20616c7265616479206d696e746564000000006000830152602082019050919050565b600061272c600a8361347a565b91507f54484952445f574f5244000000000000000000000000000000000000000000006000830152600a82019050919050565b600061276c602483613469565b91507f4552433732313a207472616e7366657220746f20746865207a65726f2061646460008301527f72657373000000000000000000000000000000000000000000000000000000006020830152604082019050919050565b60006127d2601983613469565b91507f4552433732313a20617070726f766520746f2063616c6c6572000000000000006000830152602082019050919050565b6000612812600b8361347a565b91507f5345434f4e445f574f52440000000000000000000000000000000000000000006000830152600b82019050919050565b6000612852602c83613469565b91507f4552433732313a206f70657261746f7220717565727920666f72206e6f6e657860008301527f697374656e7420746f6b656e00000000000000000000000000000000000000006020830152604082019050919050565b60006128b8600d8361347a565b91507f3c2f746578743e3c2f7376673e000000000000000000000000000000000000006000830152600d82019050919050565b60006128f8603883613469565b91507f4552433732313a20617070726f76652063616c6c6572206973206e6f74206f7760008301527f6e6572206e6f7220617070726f76656420666f7220616c6c00000000000000006020830152604082019050919050565b600061295e60018361347a565b91507f2e000000000000000000000000000000000000000000000000000000000000006000830152600182019050919050565b600061299e602a83613469565b91507f4552433732313a2062616c616e636520717565727920666f7220746865207a6560008301527f726f2061646472657373000000000000000000000000000000000000000000006020830152604082019050919050565b6000612a04602983613469565b91507f4552433732313a206f776e657220717565727920666f72206e6f6e657869737460008301527f656e7420746f6b656e00000000000000000000000000000000000000000000006020830152604082019050919050565b6000612a6a602e83613469565b91507f45524337323155524953746f726167653a2055524920736574206f66206e6f6e60008301527f6578697374656e7420746f6b656e0000000000000000000000000000000000006020830152604082019050919050565b6000612ad060028361347a565b91507f227d0000000000000000000000000000000000000000000000000000000000006000830152600282019050919050565b6000612b10602083613469565b91507f4552433732313a206d696e7420746f20746865207a65726f20616464726573736000830152602082019050919050565b6000612b50603183613469565b91507f45524337323155524953746f726167653a2055524920717565727920666f722060008301527f6e6f6e6578697374656e7420746f6b656e0000000000000000000000000000006020830152604082019050919050565b6000612bb6602c83613469565b91507f4552433732313a20617070726f76656420717565727920666f72206e6f6e657860008301527f697374656e7420746f6b656e00000000000000000000000000000000000000006020830152604082019050919050565b6000612c1c602983613469565b91507f4552433732313a207472616e73666572206f6620746f6b656e2074686174206960008301527f73206e6f74206f776e00000000000000000000000000000000000000000000006020830152604082019050919050565b6000612c82602f83613469565b91507f4552433732314d657461646174613a2055524920717565727920666f72206e6f60008301527f6e6578697374656e7420746f6b656e00000000000000000000000000000000006020830152604082019050919050565b6000612ce8600a8361347a565b91507f7b226e616d65223a2022000000000000000000000000000000000000000000006000830152600a82019050919050565b6000612d28602183613469565b91507f4552433732313a20617070726f76616c20746f2063757272656e74206f776e6560008301527f72000000000000000000000000000000000000000000000000000000000000006020830152604082019050919050565b6000612d8e600a8361347a565b91507f46495253545f574f5244000000000000000000000000000000000000000000006000830152600a82019050919050565b6000612dce601d8361347a565b91507f646174613a6170706c69636174696f6e2f6a736f6e3b6261736536342c0000006000830152601d82019050919050565b6000612e0e603183613469565b91507f4552433732313a207472616e736665722063616c6c6572206973206e6f74206f60008301527f776e6572206e6f7220617070726f7665640000000000000000000000000000006020830152604082019050919050565b6000612e7460638361347a565b91507f222c20226465736372697074696f6e223a202252616e646f6d207475726b697360008301527f682c207370616e69736820616e64206b6f7265616e206e616d65732e222c202260208301527f696d616765223a2022646174613a696d6167652f7376672b786d6c3b6261736560408301527f36342c00000000000000000000000000000000000000000000000000000000006060830152606382019050919050565b612f2281613604565b82525050565b6000612f3482846125c9565b915081905092915050565b6000612f4b82856125c9565b9150612f5782846125c9565b91508190509392505050565b6000612f6f82866125c9565b9150612f7a82612951565b9150612f8682856125c9565b9150612f9182612951565b9150612f9d82846125c9565b9150819050949350505050565b6000612fb682856125fa565b9150612fc282846125c9565b9150612fcd826128ab565b91508190509392505050565b6000612fe48261271f565b9150612ff082846125c9565b915081905092915050565b600061300682612805565b915061301282846125c9565b915081905092915050565b600061302882612cdb565b915061303482856125c9565b915061303f82612e67565b915061304b82846125c9565b915061305682612ac3565b91508190509392505050565b600061306d82612d81565b915061307982846125c9565b915081905092915050565b600061308f82612dc1565b915061309b82846125c9565b915081905092915050565b60006020820190506130bb6000830184612539565b92915050565b60006080820190506130d66000830187612539565b6130e36020830186612539565b6130f06040830185612f19565b81810360608301526131028184612557565b905095945050505050565b60006040820190506131226000830185612539565b61312f6020830184612f19565b9392505050565b600060208201905061314b6000830184612548565b92915050565b6000602082019050818103600083015261316b8184612590565b905092915050565b6000606082019050818103600083015261318d8186612590565b905061319c6020830185612f19565b6131a96040830184612539565b949350505050565b600060208201905081810360008301526131ca81612679565b9050919050565b600060208201905081810360008301526131ea816126df565b9050919050565b6000602082019050818103600083015261320a8161275f565b9050919050565b6000602082019050818103600083015261322a816127c5565b9050919050565b6000602082019050818103600083015261324a81612845565b9050919050565b6000602082019050818103600083015261326a816128eb565b9050919050565b6000602082019050818103600083015261328a81612991565b9050919050565b600060208201905081810360008301526132aa816129f7565b9050919050565b600060208201905081810360008301526132ca81612a5d565b9050919050565b600060208201905081810360008301526132ea81612b03565b9050919050565b6000602082019050818103600083015261330a81612b43565b9050919050565b6000602082019050818103600083015261332a81612ba9565b9050919050565b6000602082019050818103600083015261334a81612c0f565b9050919050565b6000602082019050818103600083015261336a81612c75565b9050919050565b6000602082019050818103600083015261338a81612d1b565b9050919050565b600060208201905081810360008301526133aa81612e01565b9050919050565b60006020820190506133c66000830184612f19565b92915050565b6000604051905081810181811067ffffffffffffffff821117156133f3576133f2613789565b5b8060405250919050565b600067ffffffffffffffff82111561341857613417613789565b5b601f19601f8301169050602081019050919050565b60008190508160005260206000209050919050565b600081519050919050565b600081519050919050565b600082825260208201905092915050565b600082825260208201905092915050565b600081905092915050565b600061349082613604565b915061349b83613604565b9250827fffffffffffffffffffffffffffffffffffffffffffffffffffffffffffffffff038211156134d0576134cf6136fc565b5b828201905092915050565b60006134e682613604565b91506134f183613604565b9250826135015761350061372b565b5b828204905092915050565b600061351782613604565b915061352283613604565b9250817fffffffffffffffffffffffffffffffffffffffffffffffffffffffffffffffff048311821515161561355b5761355a6136fc565b5b828202905092915050565b600061357182613604565b915061357c83613604565b92508282101561358f5761358e6136fc565b5b828203905092915050565b60006135a5826135e4565b9050919050565b60008115159050919050565b60007fffffffff0000000000000000000000000000000000000000000000000000000082169050919050565b600073ffffffffffffffffffffffffffffffffffffffff82169050919050565b6000819050919050565b82818337600083830152505050565b60005b8381101561363b578082015181840152602081019050613620565b8381111561364a576000848401525b50505050565b6000600282049050600182168061366857607f821691505b6020821081141561367c5761367b61375a565b5b50919050565b600061368d82613604565b91507fffffffffffffffffffffffffffffffffffffffffffffffffffffffffffffffff8214156136c0576136bf6136fc565b5b600182019050919050565b60006136d682613604565b91506136e183613604565b9250826136f1576136f061372b565b5b828206905092915050565b7f4e487b7100000000000000000000000000000000000000000000000000000000600052601160045260246000fd5b7f4e487b7100000000000000000000000000000000000000000000000000000000600052601260045260246000fd5b7f4e487b7100000000000000000000000000000000000000000000000000000000600052602260045260246000fd5b7f4e487b7100000000000000000000000000000000000000000000000000000000600052604160045260246000fd5b6000601f19601f8301169050919050565b6137d28161359a565b81146137dd57600080fd5b50565b6137e9816135ac565b81146137f457600080fd5b50565b613800816135b8565b811461380b57600080fd5b50565b61381781613604565b811461382257600080fd5b5056fe416e204e465420772f20494420257320686173206265656e206d696e74656420746f2025734142434445464748494a4b4c4d4e4f505152535455565758595a6162636465666768696a6b6c6d6e6f707172737475767778797a303132333435363738392b2fa2646970667358221220cdda812c19824a2b7ac122079992b1be410653faf25de5daf5d825dab2d31bce64736f6c634300080000333c73766720786d6c6e733d27687474703a2f2f7777772e77332e6f72672f323030302f73766727207072657365727665417370656374526174696f3d27784d696e594d696e206d656574272076696577426f783d273020302033353020333530273e3c7374796c653e2e62617365207b2066696c6c3a20234637393936453b20666f6e742d66616d696c793a20506170797275733b20666f6e742d73697a653a20323470783b20666f6e742d7765696768743a20626f6c643b7d3c2f7374796c653e3c726563742077696474683d273130302527206865696768743d2731303025272066696c6c3d272334433443394427202f3e3c7465787420783d273530252720793d273530252720636c6173733d27626173652720646f6d696e616e742d626173656c696e653d276d6964646c652720746578742d616e63686f723d276d6964646c65273e",
  "linkReferences": {},
  "deployedLinkReferences": {}
}